:100000000C9446000C9465000C9465000C946500FB
:100010000C9465000C9465000C9465000C946500CC
:100020000C9465000C9465000C9465000C946500BC
:100030000C9465000C94DE000C9465000C94650033
:100040000C9465000C9465000C9465000C9465009C
:100050000C9465000C9465000C9465000C9465008C
:100060000C9465000C9465000C9465000C9465007C
:100070000C9465000C9465000C9465000C9465006C
:100080000C9465000C9465000C94650011241FBE4F
:10009000CFEFD0E4DEBFCDBF11E0A0E0B1E0E4EEF1
:1000A000F7E000E00BBF02C007900D92A231B1074C
:1000B000D9F721E0A2E1B1E001C01D92A332B2075D
:1000C000E1F70E944A030C94F0030C940000CF93D4
:1000D000DF9300D01F92CDB7DEB789837B836A831D
:1000E00089818A3031F48A819B81BC018DE00E9434
:1000F000670080EC90E0FC018081882F90E08072A6
:100100009927892BB1F386EC90E02981FC012083AB
:1001100080E090E00F900F900F90DF91CF910895C5
:10012000CF93DF93CDB7DEB781E890E02BE0FC0101
:10013000208388E890E02DE730E0FC0131832083C4
:100140008FE690E022E0FC01208384E890E0FC014F
:100150001182108280910E0190910F01A0911001E7
:10016000B09111018093130190931401A093150194
:10017000B09316018FE590E02FE530E0F901208182
:100180002068FC0120830000DF91CF910895CF9378
:10019000DF93CDB7DEB781E890E0FC01108200006C
:1001A000DF91CF910895CF93DF93CDB7DEB781E094
:1001B000809312010000DF91CF9108951F920F925A
:1001C00000905F000F92112400905B000F922F931C
:1001D0003F934F935F936F937F938F939F93AF93CF
:1001E000BF93EF93FF93CF93DF93CDB7DEB78091AB
:1001F000130190911401A0911501B091160101977E
:10020000A109B1098093130190931401A0931501E2
:10021000B09316018091130190911401A0911501E2
:10022000B0911601892B8A2B8B2B91F40E94D3005D
:1002300080910E0190910F01A0911001B0911101D8
:100240008093130190931401A0931501B0931601AC
:100250000000DF91CF91FF91EF91BF91AF919F91FE
:100260008F917F916F915F914F913F912F910F905F
:1002700000925B000F9000925F000F901F90189506
:10028000CF93DF9300D000D0CDB7DEB769837A83F8
:100290008B839C8389819A81AB81BC8180930E0181
:1002A00090930F01A0931001B093110180910E0162
:1002B00090910F01A0911001B09111018093130151
:1002C00090931401A0931501B093160100000F90B4
:1002D0000F900F900F90DF91CF910895CF93DF9300
:1002E000CDB7DEB780911D0190911E01813091053F
:1002F00081F08130910530F08230910589F00397CB
:10030000B1F01CC081E090E090931E0180931D012C
:100310001CC082E090E090931E0180931D0115C0E7
:1003200083E090E090931E0180931D010EC081E058
:1003300090E090931E0180931D0107C081E090E042
:1003400090931E0180931D01000080911D019091EA
:100350001E018130910549F08130910590F0823085
:10036000910539F0039749F00DC081E080931701A2
:1003700009C082E08093170105C084E080931701D3
:1003800001C000000000DF91CF910895CF93DF936B
:10039000CDB7DEB780912101909122018130910586
:1003A00069F08130910518F0029779F015C081E06D
:1003B00090E0909322018093210115C082E090E0AB
:1003C00090932201809321010EC081E090E09093F0
:1003D00022018093210107C082E090E090932201E6
:1003E00080932101000080912101909122018130B0
:1003F000910531F08130910550F0029729F008C045
:1004000088E08093180104C01092180101C0000018
:100410000000DF91CF910895CF93DF931F92CDB766
:10042000DEB780E290E0FC01808180958470898352
:1004300080911B0190911C018130910581F08130E8
:10044000910530F082309105D9F0039751F13AC00F
:1004500081E090E090931C0180931B013AC0898158
:10046000882339F082E090E090931C0180931B0177
:1004700030C081E090E090931C0180931B0129C063
:100480008981882339F083E090E090931C01809368
:100490001B011FC081E090E090931C0180931B0121
:1004A00018C08981882339F082E090E090931C0184
:1004B00080931B010EC081E090E090931C0180931B
:1004C0001B0107C081E090E090931C0180931B0109
:1004D000000080911B0190911C01009749F0029748
:1004E00021F480E18093190104C01092190101C028
:1004F000000000000F90DF91CF910895CF93DF931C
:100500001F92CDB7DEB780E290E0FC01808180953C
:100510008370898380911F01909120018230910521
:10052000A9F18330910528F4009771F0019799F0B3
:1005300071C08430910509F44BC084309105B8F145
:10054000059709F456C066C081E090E090932001C1
:1005500080931F0166C08981813039F482E090E088
:100560009093200180931F015CC08981823039F40F
:1005700084E090E09093200180931F0152C081E0BD
:1005800090E09093200180931F014BC089818130BE
:1005900039F483E090E09093200180931F0141C0E3
:1005A00081E090E09093200180931F013AC08981FF
:1005B000813039F483E090E09093200180931F0113
:1005C00030C081E090E09093200180931F0129C00A
:1005D0008981823039F485E090E090932001809306
:1005E0001F011FC081E090E09093200180931F01C4
:1005F00018C08981823039F485E090E09093200121
:1006000080931F010EC081E090E0909320018093C1
:100610001F0107C081E090E09093200180931F01AB
:10062000000080911F01909120018230910531F0EE
:100630008430910549F0892B89F013C080911A010B
:100640008F5F80931A010DC080911A01823040F0B3
:1006500080911A01815080931A0102C0000001C0EC
:10066000000000000F90DF91CF910895CF93DF93AA
:10067000CDB7DEB785E290E03091190120911701E6
:10068000322B20911801232BFC0120830000DF91E5
:10069000CF910895CF93DF93CDB7DEB72A970FB6EA
:1006A000F894DEBF0FBECDBF81E290E0FC01108266
:1006B00082E290E02FEFFC01208384E290E02FEFB4
:1006C000FC01208385E290E020E1FC01208381E0B1
:1006D00090E09A8789878CE291E09A83898388EEFB
:1006E00093E09C838B8380911A01882F90E09E83F6
:1006F0008D8381E090E098878F8381E080931A0159
:1007000089859A85CC01A0E0B0E0BC01CD010E94B2
:1007100040010E94900010921E0110921D01109243
:1007200022011092210110921C0110921B011092C3
:10073000200110921F0189819A818C32914028F00A
:100740000E946E011A82198208C029813A81898526
:100750009A85820F931F9A8389838B819C81883E1F
:10076000934028F00E94C6011C821B8208C02B8186
:100770003C8189859A85820F931F9C838B8380910E
:100780001A01282F30E08D819E818217930728F06F
:100790000E940C021E821D8208C02D813E81898527
:1007A0009A85820F931F9E838D838F819885892BD5
:1007B00029F00E947E0218861F8208C02F8138858A
:1007C00089859A85820F931F98878F830E943603AD
:1007D0000000809112018823E1F310921201ABCF47
:0407E000F894FFCFBB
:1007E400000000020000000067000000000001009B
:0207F400000003
:00000001FF
