:100000000C9446000C9465000C9465000C946500FB
:100010000C9465000C9465000C9465000C946500CC
:100020000C9465000C9465000C9465000C946500BC
:100030000C9465000C94DE000C9465000C94650033
:100040000C9465000C9465000C9465000C9465009C
:100050000C9465000C9465000C9465000C9465008C
:100060000C9465000C9465000C9465000C9465007C
:100070000C9465000C9465000C9465000C9465006C
:100080000C9465000C9465000C94650011241FBE4F
:10009000CFEFD0E4DEBFCDBF11E0A0E0B1E0EAE1F8
:1000A000F6E000E00BBF02C007900D92A831B10747
:1000B000D9F721E0A8E1B1E001C01D92A632B20754
:1000C000E1F70E9492020C940B030C940000CF9372
:1000D000DF9300D01F92CDB7DEB789837B836A831D
:1000E00089818A3031F48A819B81BC018DE00E9434
:1000F000670080EC90E0FC018081882F90E08072A6
:100100009927892BB1F386EC90E02981FC012083AB
:1001100080E090E00F900F900F90DF91CF910895C5
:10012000CF93DF93CDB7DEB781E890E02BE0FC0101
:10013000208388E890E02DE730E0FC0131832083C4
:100140008FE690E022E0FC01208384E890E0FC014F
:100150001182108280910E0190910F01A0911001E7
:10016000B09111018093190190931A01A0931B0182
:10017000B0931C018FE590E02FE530E0F90120817C
:100180002068FC0120830000DF91CF910895CF9378
:10019000DF93CDB7DEB781E890E0FC01108200006C
:1001A000DF91CF910895CF93DF93CDB7DEB781E094
:1001B000809318010000DF91CF9108951F920F9254
:1001C00000905F000F92112400905B000F922F931C
:1001D0003F934F935F936F937F938F939F93AF93CF
:1001E000BF93EF93FF93CF93DF93CDB7DEB78091AB
:1001F000190190911A01A0911B01B0911C01019766
:10020000A109B1098093190190931A01A0931B01D0
:10021000B0931C018091190190911A01A0911B01CA
:10022000B0911C01892B8A2B8B2B91F40E94D30057
:1002300080910E0190910F01A0911001B0911101D8
:100240008093190190931A01A0931B01B0931C0194
:100250000000DF91CF91FF91EF91BF91AF919F91FE
:100260008F917F916F915F914F913F912F910F905F
:1002700000925B000F9000925F000F901F90189506
:10028000CF93DF9300D000D0CDB7DEB769837A83F8
:100290008B839C8389819A81AB81BC8180930E0181
:1002A00090930F01A0931001B093110180910E0162
:1002B00090910F01A0911001B0911101809319014B
:1002C00090931A01A0931B01B0931C0100000F90A2
:1002D0000F900F900F90DF91CF910895CF93DF9300
:1002E000CDB7DEB780912201909123018130910535
:1002F00081F08130910530F08230910589F00397CB
:10030000B1F01CC081E090E0909323018093220122
:100310001CC082E090E0909323018093220115C0DD
:1003200083E090E090932301809322010EC081E04E
:1003300090E0909323018093220107C081E090E038
:1003400090932301809322010000809122019091DB
:1003500023018130910549F08130910590F0823080
:10036000910539F0039749F00DC081E080931D019C
:1003700009C082E080931D0105C084E080931D01C7
:1003800001C000000000DF91CF910895CF93DF936B
:10039000CDB7DEB780912401909125018130910580
:1003A00069F08130910518F0029779F015C081E06D
:1003B00090E0909325018093240115C082E090E0A5
:1003C00090932501809324010EC081E090E09093EA
:1003D00025018093240107C082E090E090932501DD
:1003E00080932401000080912401909125018130A7
:1003F000910531F08130910550F0029729F008C045
:1004000088E080931E0104C010921E0101C000000C
:100410000000DF91CF910895CF93DF931F92CDB766
:10042000DEB780E290E0FC01808180958470898352
:1004300080912001909121018130910581F08130DE
:10044000910530F082309105D9F0039751F13AC00F
:1004500081E090E090932101809320013AC089814E
:10046000882339F082E090E090932101809320016D
:1004700030C081E090E0909321018093200129C059
:100480008981882339F083E090E090932101809363
:1004900020011FC081E090E0909321018093200112
:1004A00018C08981882339F082E090E0909321017F
:1004B000809320010EC081E090E090932101809311
:1004C000200107C081E090E09093210180932001FA
:1004D00000008091200190912101009749F002973E
:1004E00021F480E180931F0104C010921F0101C01C
:1004F000000000000F90DF91CF910895CF93DF931C
:10050000CDB7DEB785E290E030911F0120911D014B
:10051000322B20911E01232BFC0120830000DF9150
:10052000CF910895CF93DF93CDB7DEB781E290E00E
:10053000FC01108282E290E02FEFFC01208384E234
:1005400090E02FEFFC01208385E290E020E1FC01A8
:10055000208361E070E080E090E00E9440010E9412
:100560009000109223011092220110922501109206
:10057000240110922101109220018091120190918A
:1005800013018C32914038F00E946E0110921301D9
:100590001092120109C080911201909113010196ED
:1005A0009093130180931201809114019091150191
:1005B000883E934038F00E94C601109215011092B7
:1005C000140109C080911401909115010196909336
:1005D00015018093140180911601909117010297E3
:1005E00038F00E940C02109217011092160109C0F7
:1005F00080911601909117010196909317018093B5
:1006000016010E947E020000809118018823E1F308
:0A06100010921801B2CFF894FFCF4A
:10061A000000000200000000670000000000010066
:08062A0000002C01E8030200AE
:00000001FF
