:100000000C9446000C9465000C9465000C946500FB
:100010000C9465000C9465000C9465000C946500CC
:100020000C9465000C9465000C9465000C946500BC
:100030000C9465000C94DE000C9465000C94650033
:100040000C9465000C9465000C9465000C9465009C
:100050000C9465000C9465000C9465000C9465008C
:100060000C9465000C9465000C9465000C9465007C
:100070000C9465000C9465000C9465000C9465006C
:100080000C9465000C9465000C94650011241FBE4F
:10009000CFEFD0E4DEBFCDBF11E0A0E0B1E0ECEEE9
:1000A000F4E000E00BBF02C007900D92A631B1074B
:1000B000D9F721E0A6E1B1E001C01D92A132B2075B
:1000C000E1F70E941D020C9474020C940000CF937F
:1000D000DF9300D01F92CDB7DEB789837B836A831D
:1000E00089818A3031F48A819B81BC018DE00E9434
:1000F000670080EC90E0FC018081882F90E08072A6
:100100009927892BB1F386EC90E02981FC012083AB
:1001100080E090E00F900F900F90DF91CF910895C5
:10012000CF93DF93CDB7DEB781E890E02BE0FC0101
:10013000208388E890E02DE730E0FC0131832083C4
:100140008FE690E022E0FC01208384E890E0FC014F
:100150001182108280910E0190910F01A0911001E7
:10016000B09111018093170190931801A093190188
:10017000B0931A018FE590E02FE530E0F90120817E
:100180002068FC0120830000DF91CF910895CF9378
:10019000DF93CDB7DEB781E890E0FC01108200006C
:1001A000DF91CF910895CF93DF93CDB7DEB781E094
:1001B000809316010000DF91CF9108951F920F9256
:1001C00000905F000F92112400905B000F922F931C
:1001D0003F934F935F936F937F938F939F93AF93CF
:1001E000BF93EF93FF93CF93DF93CDB7DEB78091AB
:1001F000170190911801A0911901B0911A0101976E
:10020000A109B1098093170190931801A0931901D6
:10021000B0931A018091170190911801A0911901D2
:10022000B0911A01892B8A2B8B2B91F40E94D30059
:1002300080910E0190910F01A0911001B0911101D8
:100240008093170190931801A0931901B0931A019C
:100250000000DF91CF91FF91EF91BF91AF919F91FE
:100260008F917F916F915F914F913F912F910F905F
:1002700000925B000F9000925F000F901F90189506
:10028000CF93DF9300D000D0CDB7DEB769837A83F8
:100290008B839C8389819A81AB81BC8180930E0181
:1002A00090930F01A0931001B093110180910E0162
:1002B00090910F01A0911001B0911101809317014D
:1002C00090931801A0931901B0931A0100000F90A8
:1002D0000F900F900F90DF91CF910895CF93DF9300
:1002E000CDB7DEB780911D0190911E01813091053F
:1002F00081F08130910530F08230910589F00397CB
:10030000B1F01CC081E090E090931E0180931D012C
:100310001CC082E090E090931E0180931D0115C0E7
:1003200083E090E090931E0180931D010EC081E058
:1003300090E090931E0180931D0107C081E090E042
:1003400090931E0180931D01000080911D019091EA
:100350001E018130910549F08130910590F0823085
:10036000910539F0039749F00DC081E080931B019E
:1003700009C082E080931B0105C084E080931B01CB
:1003800001C000000000DF91CF910895CF93DF936B
:10039000CDB7DEB780911F0190912001813091058A
:1003A00069F08130910518F0029779F015C081E06D
:1003B00090E09093200180931F0115C082E090E0AF
:1003C0009093200180931F010EC081E090E09093F4
:1003D000200180931F0107C082E090E090932001EC
:1003E00080931F01000080911F01909120018130B6
:1003F000910531F08130910550F0029729F008C045
:1004000088E080931C0104C010921C0101C0000010
:100410000000DF91CF910895CF93DF93CDB7DEB782
:1004200085E290E030911B0120911C01232BFC01FF
:1004300020830000DF91CF910895CF93DF93CDB754
:10044000DEB784E290E02FEFFC01208385E290E0AC
:10045000FC01108264E670E080E090E00E944001C0
:100460000E94900010921E0110921D011092200116
:1004700010921F0180911201909113018C329140D2
:1004800038F00E946E0110921301109212010AC0FE
:1004900080911201909113018C599F4F90931301F9
:1004A000809312018091140190911501883E934030
:1004B00038F00E94C60110921501109214010AC072
:1004C00080911401909115018C599F4F90931501C3
:1004D000809314010E940C02000080911601882371
:0C04E000E1F310921601C6CFF894FFCF94
:1004EC000000000200000000670000000000010096
:0604FC0000002C01E803E2
:00000001FF
