:100000000C9446000C9465000C9465000C946500FB
:100010000C9465000C9465000C9465000C946500CC
:100020000C9465000C9465000C9465000C946500BC
:100030000C9465000C94DE000C9465000C94650033
:100040000C9465000C9465000C9465000C9465009C
:100050000C9465000C9465000C9465000C9465008C
:100060000C9465000C9465000C9465000C9465007C
:100070000C9465000C9465000C9465000C9465006C
:100080000C9465000C9465000C94650011241FBE4F
:10009000CFEFD0E4DEBFCDBF11E0A0E0B1E0E4E9F6
:1000A000F4E000E00BBF02C007900D92A231B1074F
:1000B000D9F721E0A2E1B1E001C01D92AD31B20754
:1000C000E1F70E941D020C9448020C940000CF93AB
:1000D000DF9300D01F92CDB7DEB789837B836A831D
:1000E00089818A3031F48A819B81BC018DE00E9434
:1000F000670080EC90E0FC018081882F90E08072A6
:100100009927892BB1F386EC90E02981FC012083AB
:1001100080E090E00F900F900F90DF91CF910895C5
:10012000CF93DF93CDB7DEB781E890E02BE0FC0101
:10013000208388E890E02DE730E0FC0131832083C4
:100140008FE690E022E0FC01208384E890E0FC014F
:100150001182108280910E0190910F01A0911001E7
:10016000B09111018093130190931401A093150194
:10017000B09316018FE590E02FE530E0F901208182
:100180002068FC0120830000DF91CF910895CF9378
:10019000DF93CDB7DEB781E890E0FC01108200006C
:1001A000DF91CF910895CF93DF93CDB7DEB781E094
:1001B000809312010000DF91CF9108951F920F925A
:1001C00000905F000F92112400905B000F922F931C
:1001D0003F934F935F936F937F938F939F93AF93CF
:1001E000BF93EF93FF93CF93DF93CDB7DEB78091AB
:1001F000130190911401A0911501B091160101977E
:10020000A109B1098093130190931401A0931501E2
:10021000B09316018091130190911401A0911501E2
:10022000B0911601892B8A2B8B2B91F40E94D3005D
:1002300080910E0190910F01A0911001B0911101D8
:100240008093130190931401A0931501B0931601AC
:100250000000DF91CF91FF91EF91BF91AF919F91FE
:100260008F917F916F915F914F913F912F910F905F
:1002700000925B000F9000925F000F901F90189506
:10028000CF93DF9300D000D0CDB7DEB769837A83F8
:100290008B839C8389819A81AB81BC8180930E0181
:1002A00090930F01A0931001B093110180910E0162
:1002B00090910F01A0911001B09111018093130151
:1002C00090931401A0931501B093160100000F90B4
:1002D0000F900F900F90DF91CF910895CF93DF9300
:1002E000CDB7DEB78091190190911A018130910547
:1002F00081F08130910530F08230910589F00397CB
:10030000B1F01CC081E090E090931A018093190134
:100310001CC082E090E090931A018093190115C0EF
:1003200083E090E090931A01809319010EC081E060
:1003300090E090931A018093190107C081E090E04A
:1003400090931A01809319010000809119019091F6
:100350001A018130910549F08130910590F0823089
:10036000910539F0039749F00DC081E080931701A2
:1003700009C082E08093170105C084E080931701D3
:1003800001C000000000DF91CF910895CF93DF936B
:10039000CDB7DEB780911B0190911C018130910592
:1003A00069F08130910518F0029779F015C081E06D
:1003B00090E090931C0180931B0115C082E090E0B7
:1003C00090931C0180931B010EC081E090E09093FC
:1003D0001C0180931B0107C082E090E090931C01F8
:1003E00080931B01000080911B0190911C018130C2
:1003F000910531F08130910550F0029729F008C045
:1004000088E08093180104C01092180101C0000018
:100410000000DF91CF910895CF93DF93CDB7DEB782
:1004200085E290E03091170120911801232BFC0107
:1004300020830000DF91CF910895CF93DF93CDB754
:10044000DEB784E290E02FEFFC01208385E290E0AC
:10045000FC01108268EE73E080E090E00E944001B1
:100460000E94900010921A011092190110921C0122
:1004700010921B010E946E010E94C6010E940C0294
:100480000000809112018823E1F310921201F2CF53
:04049000F894FFCF0E
:1004940000000002000000006700000000000100EE
:0204A400000056
:00000001FF
